:1000000012C0A3C21EC01DC01CC01BC01AC019C094
:1000100018C017C016C015C014C013C012C011C03C
:1000200010C00FC00EC011241FBECFEDCDBF10E019
:10003000A0E6B0E001C01D92AD36B107E1F7D9D21C
:10004000ACC3DECF982F9F7082958F708A3018F4E2
:10005000282F205D02C0282F295C9A3018F4892FA0
:10006000805D02C0892F895C5D9BFECF2CB95D9BB2
:10007000FECF8CB908955D9BFECF8CB908955D9B32
:10008000FECF8DE08CB95D9BFECF8AE08CB90895E0
:1000900020E004C05D9BFECFECB92F5FFC01E20FB6
:1000A000F11DE081EE23B1F7089580B3880F90B37E
:1000B0009295907F26B3807C9073892B2F70822B32
:1000C00080950895C49880688FB980E48EB98BE1DB
:1000D0008DB9769BFDCF6FB980E48EB98BE18DB978
:1000E000769BFDCFC49A0895C4988F778FB980E42A
:1000F0008EB98BE18DB9769BFDCF1FB880E48EB9A8
:100100008BE18DB9769BFDCFC49A8FB10895EF92A4
:10011000FF920F931F9310E09AE3E92E80E2F82EEE
:10012000812FE2DF082F812F8DDF5D9BFECFECB8A2
:100130005D9BFECFFCB8802F85DFA1DF1F5F1038ED
:1001400079F71F910F91FF90EF90089598DF5D9BD5
:10015000FECF8EE38CB990E05F9BFECF8CB1E92F90
:10016000F0E0E05AFF4F80839F5F5D9BFECF8CB92C
:100170008D3091F79150E92FF0E0E05AFF4F108257
:100180005D9BFECF8AE08CB908958FDF8F7009F4F4
:1001900015C18130C1F480E760E294DF8CE163E354
:1001A00091DF80E260ED8EDF81E260E08BDF82E252
:1001B0006DE988DF83E269E485DF84E260E082DF65
:1001C00085E260EADFC08230C1F480E760E27ADF76
:1001D0008CE167E077DF80E263E874DF81E260EC66
:1001E00071DF82E263E16EDF83E269EA6BDF84E262
:1001F00060E068DF85E265E0C5C08330C1F480E778
:1002000060E260DF8CE164E35DDF80E268E65ADF94
:1002100081E261E057DF82E26AE354DF83E263E96F
:1002200051DF84E262E04EDF85E268E7ABC08430F4
:10023000C1F480E760E246DF8CE164E043DF80E206
:1002400061E440DF81E260E63DDF82E267E23ADFBF
:1002500083E262E537DF84E260E034DF85E26AE072
:1002600091C0853031F480E760E22CDF8CE161E2FF
:1002700029C08630C1F480E760E224DF8CE163E0CE
:1002800021DF80E260E91EDF81E260E21BDF82E2C3
:1002900061E518DF83E26CEE15DF84E260E012DFD7
:1002A00085E26BE26FC0873031F480E760E20ADFFD
:1002B0008CE161E107C08830C1F480E760E002DFD3
:1002C0008CE161E0FFDE80E264E6FCDE81E261E079
:1002D000F9DE82E267E4F6DE83E26EEAF3DE84E2D0
:1002E00065E0F0DE85E261E24DC08930C1F480E76F
:1002F00060E0E8DE8CE165E0E5DE80E264E6E2DE17
:1003000081E261E0DFDE82E267E4DCDE83E26EEA66
:10031000D9DE84E262E0D6DE85E261E933C08A306C
:10032000C1F480E760E0CEDE8CE16FE0CBDE80E2FE
:1003300068E7C8DE81E261E0C5DE82E261E1C2DE3B
:1003400083E261E1BFDE84E264E0BCDE85E266E474
:1003500019C08B30C9F480E760E0B4DE8CE16EE058
:10036000B1DE80E268E7AEDE81E261E0ABDE82E230
:1003700061E1A8DE83E261E1A5DE84E260E0A2DE65
:1003800085E268EB9FDE08958C30C1F480E760E27F
:1003900099DE8CE164E096DE80E268EC93DE81E237
:1003A00060E090DE82E263EA8DDE83E267ED8ADE62
:1003B00084E260E087DE85E266EA84DE08950F93DA
:1003C0001F93CF93DF93EC0188818735F9F48A81FD
:1003D000382F30533A3008F037509B81892F8053A3
:1003E0008A3008F087502D81922F90539A3008F070
:1003F00097502E81622F60536A3008F067509295B3
:10040000907F3295307F692B832B5CDE888184342A
:1004100009F47DDE8881833519F487E061E052DEDE
:100420008881843521F4B1DE87E069E04BDE888184
:10043000803531F481E758DE682F606381E742DE62
:100440008881833431F481E74FDE682F6C7F81E748
:1004500039DE8881873431F481E746DE682F6360B6
:1004600081E730DE88818F3439F481E73DDE682F03
:1004700061606D7F81E726DE8881863439F481E70B
:1004800033DE682F62606E7F81E71CDE88818E34E8
:1004900039F481E729DE682F60626F7E81E712DE22
:1004A0008881823589F48A81982F90539A3008F098
:1004B00097502B81822F80538A3008F08750929575
:1004C000907F892B11DEBEDD8881813339F585E08F
:1004D00067E0F8DD5ADE949804E610E016C010924A
:1004E0006C008FE76AE6EEDD8FE765E4EBDD87E021
:1004F00069E0E8DD80916C008823E1F38CED95E004
:10050000F8013197F1F70197D9F78599E8CF949AD7
:1005100085E060E0D7DD87E061E0D4DD888182336B
:1005200079F485E067E0CEDD30DE87E065E0CADDA6
:100530008599FECF85E060E0C5DD87E061E0C2DD42
:10054000DF91CF911F910F9108951F920F920FB6D7
:100550000F9211241F932F933F934F935F936F93A9
:100560007F938F939F93AF93BF93EF93FF9387E016
:1005700061E0A8DD83E0B8DD182F84E0B5DD1770F9
:1005800088E062E09FDD88E060E09CDD88E061E07B
:1005900099DD88E060E096DD143018F081E080930A
:1005A0006C00113041F4949A939880E29EE4019794
:1005B000F1F7939A09C0123051F4939A949880E21B
:1005C0009EE40197F1F7949A87E065E07BDDFF9167
:1005D000EF91BF91AF919F918F917F916F915F91BB
:1005E0004F913F912F911F910F900FBE0F901F9031
:1005F000189580ED87BB88B38F6088BB98E191BB6D
:1006000082B3836682BB939A949A15BE80E48BBFB3
:100610008CE089B912B886E083B99AB9C49A8CED96
:1006200095E024E630E0F9013197F1F70197D9F729
:1006300087E060E847DD8CED95E024E630E0F901E5
:100640003197F1F70197D9F785E060E03BDD86E06F
:1006500060E038DD83E048DD84E046DD8AE56FE771
:1006600031DD88E560E82EDD89E560E42BDD8AE692
:100670006BE028DD88E664E025DD8FE163E022DDC4
:1006800089E06BE71FDD8AE060E01CDD8BE062ED56
:1006900019DD8CE065ED16DD8DE060E013DD8FE0A7
:1006A00060E710DD80E160E00DDD82E160E00ADD01
:1006B00083E160E007DD8CE164E004DD8DE160E46E
:1006C00001DD8EE165E0FEDC80E268ECFBDC81E2CE
:1006D00060E0F8DC82E263EAF5DC83E267EDF2DCFD
:1006E00084E260E0EFDC85E266EAECDC80E36EE861
:1006F000E9DC82E360E0E6DC83E362E0E3DC84E300
:1007000060E1E0DC85E360E3DDDC86E36DE2DADC1A
:1007100087E364EDD7DC89E660E2D4DC8EE362E057
:10072000D1DC8DE660E0CEDC80E760E2CBDC81E707
:1007300063E2C8DC82E760E4C5DC8EE663EAC2DC23
:100740008FE667EDBFDC83E760E0BCDC84E760E058
:10075000B9DC89E760E0B6DC8AE760E0B3DC85E716
:1007600063E5B0DC86E762E6ADDC87E760E0AADC43
:1007700085E067E0A7DC88E061E0A4DC88E060E079
:10078000A1DC88E062E09EDC88E060E09BDC78949D
:0E079000DDDC80E690E013DEFBCFF894FFCFB7
:00000001FF
